:020000040000FA
:060000000200E30205020C
:03001300020541A2
:03002B0002052E9D
:03003B000207C0F9
:03004B0002051893
:0300630002045440
:1000830002048700000080FB12013FB90003020055
:10009300CDE4900201781C79148002F0A3D8FCD936
:1000A300FA90151CAA82AB839001427838790180BB
:1000B30015E493A3AC82AD838A828B83F0A3AA82D7
:1000C300AB838C828D83D8E9D9E77582A275830EC1
:1000D30074001200F575828675830074001200F5B2
:1000E30075D0007581BF751001751102759F0002EF
:1000F300008BC0F0F5F0E59F5407C0E0E59F54F88E
:1001030045F0D0F0F59FE473859FF053F0F8D0E00D
:1001130045F0F59F22D083D082E59F5407C0E0E4E9
:1001230093C0E0740193C0E07402935407C0F0F5E8
:10013300F0E59F54F845F0D0F0F59F22790122CEE7
:10014300DECFDFB4AEBFDACDA8D1B6C9E8B1B8000F
:100153000101020203020387021C15FFFFFFFFFFD9
:10016300FFFFFFFFFF0152033025EECC7755000060
:10017300000000000C001201183108001201189051
:100183000900120118D60B00120118150E001201F6
:10019300188A0E00120118E01400120118891500C4
:1001A300120118DB1900120118F01900120118D3FB
:1001B3001A00120118141B00120118231C0012014B
:1001C30018E01C00120118541D00120118BC1E0077
:1001D300120118331F00120118CE1F00120118E676
:1001E3001F001201186A20001201180521001201D4
:1001F300182D21001201184921001201180B2200A9
:10020300E066701008A3E066700A08A3E066700455
:1002130008A3E06622E026F008A3E036F008A3E096
:1002230036F008A3E036F022E0F608A3E0F608A3D0
:10023300E0F608A3E0F622E6F008A3E6F008A3E65A
:10024300F008A3E6F022CAC0E0E6F0A308DAFAD089
:10025300E0FA22C3E498F8E499F91202978026C3DE
:10026300E49AFAE49BFBE920E7E9120297E498F8A1
:10027300E499F922C3E498F8E499F9120297E4980F
:10028300F8E499F9C3E49AFAE49BFB22EB20E7CF65
:10029300E920E7E0B90010BB0008E88AF084F8AA77
:1002A300F022E4FBC8FA22EB70227B10C833C8C9E2
:1002B30033C9335007C39AC3DBF280069A50012A2D
:1002C300DBEAC833F4C8C933F4C9FA2275F008E489
:1002D300C833C8C933C933C99AC99B5004C92AC989
:1002E3003BD5F0ECFBC833F4C8E4C9FA22600C0830
:1002F300C6C313C618C613C6D5E0F4227004226021
:100303000D18C6C333C608C633C6D5E0F418222574
:100313001010AF08F510400215118008F5104002C7
:100323001511D2AF22C0D0251010AF08F51050021E
:1003330005118008F51050020511D2AFD0D0222547
:1003430010F58210AF08F510400215118008F51062
:1003530040021511D2AF851183222510F582E435B1
:1003630011F58322E4732510C582C0E0E51134FF43
:10037300C583C0E0E510C3958224F8F8E4C5A885D9
:100383008311858210C5A8E8CEF0A3E520F0A378F9
:1003930008E608F0A3DEFAEFF0A3E58124FAF8E615
:1003A30008F0A3E608F0A3E608F0A30808E608F0BF
:1003B300A3E608F0A315811581D0E0FED0E0F8157F
:1003C3008115811581E8C0E0EEC0E02285118385A7
:1003D3001082E0A3FEE0A3F5207808E0A3F608DF8F
:1003E300FAE0A3FFE0A3C0E0E0A3C0E0E0A3C0E025
:1003F300E0A3C0E0E0A3C0E0E4C5A8858210858344
:1004030011C5A8D083D08202010B74028000C0E022
:10041300F404120342D0E012024922D083D082C5F1
:10042300F0E493A3C5F0C395F0F5F0E493A3C3956B
:10043300F04005E5F0048001E475F002A42582F59F
:1004430082E5F03583F583E493A3C0E0E493C0E051
:1004530022C0E0C0D0C082C083A2DB500A9004381F
:10046300E004F0C2DBC2C4D083D0828012D0E0FDAE
:10047300D0E0FCD0E0FBD0E0FAD0E0F9D0E0F8D057
:10048300D0D0E032C0E0C0D0E8C0E0E9C0E0EAC0CC
:10049300E0EBC0E0ECC0E0EDC0E0EEC0E0C082C045
:1004A30083C0F0A2AFE492E0FEC2AF9061A4E0FA91
:1004B300759B00E5915A541060287591EFE0C2E4F2
:1004C300F09061E4E07013900271E004F070037443
:1004D30001F0740190152DF08008E064017003129F
:1004E30001D3E5E9A2E6500612017953E9BFEEA272
:1004F300E092AFD0F0D083D082D0E0FE020470C08F
:10050300E0C0D0E5BFA2E2500675E1ED75E1EE75FE
:10051300BF00020482C0E0C0D0C082C083740190D7
:10052300039FF053AFFEC2B902046AC0E0C0D0C05B
:1005330082C083C2C77401900470F002046AC0E0F1
:10054300C0D0E8C0E0E9C0E0EAC0E0EBC0E0ECC046
:10055300E0EDC0E0C082C083C0F0E5C190151BF0A0
:1005630090039EE0FA600302062E9004F1E075F01A
:1005730082A424F4F582E5F03404F583E064016099
:10058300030207B7E4900438F074019004F3F09089
:1005930004F1E0FB90151BE0C0E09004F1E075F07E
:1005A30082A4F8A9F0EB75F082A424F5F582E5F0B6
:1005B3003404F583E024F6FAE43404FBE82AF582F4
:1005C300E93BF583D0E0F09004F1E075F082A424D8
:1005D300F5F582E5F03404F583E004F09004F1E0EE
:1005E30075F082A424F5F582E5F03404F583E0FA8E
:1005F30090037DE06A60030207B79004F1E075F0B1
:1006030082A424F4F582E5F03404F583E4F0900445
:10061300F1E0F874012808E43400F97A107B001241
:10062300028FEAF0E49004F30207B674016A6003F0
:100633000207B7901519E012041E0005B7074D060F
:1006430063067B06AB06B806F10690151BE0647ED5
:1006530060030207B2747E900471F074010207B361
:1006630090151BE024FCC3946140030207B2E090A1
:100673000472F074020207B390151BE0C0E09015FA
:100683001AE02473F582E43404F583D0E0F0901586
:100693001AE004F0640260030207B77403901519AB
:1006A300F0E490151A0207B690151BE0900475F05C
:1006B30074040207B390151BE0C0E090151AE02400
:1006C30076F582E43404F583D0E0F090151AE00463
:1006D300F0FA900472E0F874FC28F874FF3400F91F
:1006E300E86A7001E960030207B7740580AF9015EB
:1006F3001BE064CE60030207B2900472E02472F53B
:1007030082E43404F58374CEF0E490151AF0900477
:10071300F1E075F082A424F4F582E5F03404F58366
:10072300E0640160030207B29004F1E0FC900472FC
:10073300E02402FD7A717B04EC75F082A424F6F8C0
:10074300E5F03404F9ED60208A828B83E0888289A6
:1007530083F08A828B83A3AA82AB8388828983A353
:10076300A882A9831DED70E0900472E02402C0E02A
:100773009004F1E075F082A424F5F582E5F03404E9
:10078300F583D0E0F09004F1E075F082A424F4F551
:1007930082E5F03404F583E4F09004F1E0F87401A9
:1007A3002808E43400F97A107B0012028FEAF0E49F
:1007B300901519F0D0F0D083D082020470C0E0C04D
:1007C300D0E8C0E0E9C0E0EAC0E0EBC0E0C082C02E
:1007D30083901514E0F8A3E0F9901516E068700310
:1007E300A3E069700A539AFB74019015188037C20D
:1007F300E9901514E0F8A3E0F9740128FAE439FB51
:10080300901514EAF0A3EBF0E82414F582E9340D13
:10081300F583E0F5C1901514C3E0A3E09408400705
:10082300901514E4F0A3F0D083D08202047674F61A
:100833001203699061A3E0C2E6F0539AFEC2AF745B
:100843007F55D9900278F0787979027A03E5D988CF
:10085300828983F0E5D9A3F0E5D988828983A3A3AC
:10086300F0E82403080808E93400F91AEA70DE9076
:100873000280E0F8A3E0F9900382E0687003A3E04C
:1008830069701275E1EDD2AF9061A3E0D2E6F04357
:100893009A0102098B7C00900278E0F874F528FA3B
:1008A30074FF3400FBC3EA9401EB9400A2D265D039
:1008B300335003020959EAF8EBF9E8540360297449
:1008C3000358FA7B00E5D9C0E08C08E5082482F5DB
:1008D30082E43402F583D0E0F00CEA24FF1AEB340F
:1008E300FFFBEA7001EB70DD880889097402780860
:1008F3001202F0A808A909E87001E96059E5D9C016
:10090300E08C08E5082482F582E43402F583D0E024
:10091300F00CE5D9C0E0EC2482F582E43402F583DF
:10092300D0E0F00CE5D9C0E0EC2482F582E4340297
:10093300F583D0E0F00CE5D9C0E0EC2482F582E445
:100943003402F583D0E0F00CE824FF18E934FFF912
:10095300E87001E970A7E5D99002FFF0E5D99003AB
:1009630000F0D2AF9061A3E0D2E6F0439A01900386
:1009730000E0A2E75012D2AF9061A3E0D2E6F043C9
:100983009A017401900301F07F020203CF74F01205
:10099300036974FE120312851082851183EAF0A3A2
:1009A300EBF0ECFAEDFB890A7405250AF8E4340050
:1009B300F9E89471E99400C365D0334003020BCC8A
:1009C300E8F508740F55086004780180027800E5A3
:1009D30008C4540F28F509F50A750B007404780A46
:1009E3001202FFA80AA90B758201758302E8700140
:1009F300E96011E4F0A3E824FF18E934FFF9E87093
:100A030001E970EF901543780C12022B90152EE03C
:100A1300F8A3E0F5838882E50CF0A3E50DF0A3E5E8
:100A23000EF0A3E50FF074FB2508FC90152EE0F8FB
:100A3300A3E0F5838882A3A3A3A3ECF08C0A90150B
:100A43002EE02405F8A3E03400F9EC60228A828BBF
:100A530083E088828983F08A828B83A3AA82AB8313
:100A630088828983A3A882A983150AE50A70DEE533
:100A730009C454F0F508750B00E509602D7E017F6C
:100A83000253B38FE5B343B34053B3F8E5B3EEFC7E
:100A9300EFFDEEFAEFFB1201AF050BEE2410FEEFB4
:100AA3003400FFE50BC3950940D7906193E05422CE
:100AB30070F89061A3E0C2E6F0539AFEE490044517
:100AC300F07403900446F01201CD75E1EE7591FDCB
:100AD300740B2508F5D975D94175D988900271E051
:100AE300F5D9900380E0F5D9A3E0F5D98510828587
:100AF3001183E0F8A3E0F5838882E0F5D9851082BD
:100B0300851183A3E0F5838882A3E0F5D99003825E
:100B1300E0F5D9A3E0F5D9E508604C75820175834A
:100B230002740355086009FAE0F5D9A31AEA70F8CC
:100B3300E5081313543FFB602EA882A9838882899A
:100B430083E0F5D9A3E0F5D988828983A3A3E0F5EF
:100B5300D988828983A3A3A3E0F5D9E82404F8E91B
:100B63003400F91BEB70D69061A3E0D2E6F0439A10
:100B730001900447E09061E2F075A1FDA2AFE49219
:100B8300E0FBC2AF75C300E5A2FCE5A3FD90043E04
:100B9300E0C394125008EC7005ED70027C0175C33C
:100BA300038CA28DA3EBA2E092AF9061A4E0D2E408
:100BB300F0E0D2E3F07401900273F075E1ED75E1BA
:100BC300E375E1E1E490152DF074021203287F0828
:100BD3000203CF74F012036974FE120312851082AC
:100BE300851183EAF0A3EBF0ECFAEDFB890A7405B7
:100BF300250AF8E43400F9E89471E99400C365D058
:100C0300334003020E12E8F508740F5508600478A8
:100C13000180027800E508C4540F28F509F50A7528
:100C23000B007404780A1202FFA80AA90B7582014B
:100C3300758302E87001E96011E4F0A3E824FF186A
:100C4300E934FFF9E87001E970EF901547780C1269
:100C5300022B90152EE0F8A3E0F5838882E50CF0D3
:100C6300A3E50DF0A3E50EF0A3E50FF074FB250853
:100C7300FC90152EE0F8A3E0F5838882A3A3A3A339
:100C8300ECF08C0A90152EE02405F8A3E03400F96B
:100C9300EC60228A828B83E088828983F08A828B4C
:100CA30083A3AA82AB8388828983A3A882A983159D
:100CB3000AE50A70DEE509C454F0F508750B00E592
:100CC30009602D7E017F0253B38FE5B343B34053D5
:100CD300B3F8E5B3EEFCEFFDEEFAEFFB1201AF055F
:100CE3000BEE2410FEEF3400FFE50BC3950940D74C
:100CF300906193E0542270F89061A3E0C2E6F05350
:100D03009AFEE4900445F07403900446F01201CD7A
:100D130075E1EE7591FD740B2508F5D975D941750B
:100D2300D988900271E0F5D9900380E0F5D9A3E06A
:100D3300F5D9851082851183E0F8A3E0F5838882D5
:100D4300E0F5D9851082851183A3E0F5838882A31A
:100D5300E0F5D9900382E0F5D9A3E0F5D9E5086081
:100D63004C758201758302740355086009FAE0F536
:100D7300D9A31AEA70F8E5081313543FFB602EA8B1
:100D830082A98388828983E0F5D9A3E0F5D9888293
:100D93008983A3A3E0F5D988828983A3A3A3E0F57C
:100DA300D9E82404F8E93400F91BEB70D69061A369
:100DB300E0D2E6F0439A01900447E09061E2F075D7
:100DC300A1FDA2AFE492E0FBC2AF75C300E5A2FCB4
:100DD300E5A3FD90043EE0C394125008EC7005EDCA
:100DE30070027C0175C3038CA28DA3EBA2E092AFCA
:100DF3009061A4E0D2E4F0E0D2E3F07401900273D6
:100E0300F075E1ED75E1E375E1E1E490152DF00294
:100E13000BCCC082C08353BEFBE59DA2E650FA0013
:100E230078F8790100E824FF18E934FFF9E8700144
:100E3300E970F175C6807480659E70FA43BE0474D0
:100E430008906270F043FD807404F5D575D448743E
:100E530004F5D375D25053FF3FE5FF85FFFF53F1F0
:100E6300FE43F30CE5F353F2FB75868075C48043B0
:100E7300FE2053FE3FE5FEC29543FE0CE5FEC29203
:100E8300C293D2AF021FC7800100EAF8EBF974FFE7
:100E9300281A74FF39FBE87001E970ED02010B7445
:100EA300E312031212018B780C79787A3A7B157C62
:100EB3000488828983E08A828B83F088828983A372
:100EC300A882A9838A828B83A3AA82AB838882891F
:100ED30083E08A828B83F088828983A308A9838A2B
:100EE300828B83A30AAB831CEC70C61201A312018D
:100EF300971201A91201B51201C71201BB74018532
:100F03001082851183F090037CE0C0E0740112032A
:100F13005DD0E0F0740212035DE4F0740312035D2C
:100F23007440F0A3E4F0740A12035D7480F0A3E448
:100F3300F0741212035D7480F0A3E4F074051203DD
:100F43005D7406F0741612035D7401F0741B1203D2
:100F53005DE4F0A3F0851082851183AA82AB83122E
:100F630001F7901542E0602D74159061B2F0E490A2
:100F730061AEF074689061EBF0746A9061ECF074A8
:100F8300FB906244F074FC906247F043FD8079016A
:100F93001201D9801874689061EBF0746A9061EC67
:100FA300F074FB906244F074FC906247F09061A38C
:100FB300E0D2E6F0439A01906180E0D2E0F075E17F
:100FC300EC75E1E39061A5E0D2E2F0C2AF75F00504
:100FD30090037EE0A424D490618FF0900382E0908C
:100FE3006174F0900383E0906175F0900380E0F802
:100FF300A3E0F9E8906172F0E9906173F0740190F5
:101003000271F0D2AF90037FE0C454F044059061C5
:1010130090F07401900273F075E1ED75E1E375C929
:10102300A875C958E5EB75EB0043EBE0E5EB53EB33
:10103300EF43EB0843EB0453EBFCE5EBC2DBC2C429
:10104300D2AFD2BCE4900438F043EB10F002117538
:101053000CECC39410500302144090039FE064010E
:101063006003021165901530E0F8A3E0F5838882F0
:10107300742EF0901530E0F8A3E0F5838882A37412
:1010830082F0783A7915901530E02402FAA3E0341F
:1010930000FB7C0488828983E08A828B83F08882C8
:1010A3008983A3A882A9838A828B83A3AA82AB8321
:1010B30088828983E08A828B83F088828983A3086C
:1010C300A9838A828B83A30AAB831CEC70C6901519
:1010D30030E0240AF8A3E03400F990037CE088822E
:1010E3008983F07A7D7B03A3A882A9837C118A82FA
:1010F3008B83E088828983F08A828B83A3AA82AB65
:101103008388828983A3A882A9838A828B83E088C8
:10111300828983F08A828B83A30AAB838882898343
:10112300A308A9831CEC70C69003A0E0C0E090154F
:1011330030E0242DF8A3E03400F988828983D0E0DD
:10114300F0901530E0F8A3E0F5838882E0F990157C
:1011530030E0FCA3E0FD7A327B03120185E49003C7
:101163009FF0740F55C944A0F5C9740F55C9445075
:10117300F5C9A29650030212307E00EEA2E09295CA
:10118300C2927A207B4E120191D2927A207B4E1228
:101193000191740F55C944A0F5C9740F55C9445042
:1011A300F5C9EEA2E092F0A29620F001B34004C28A
:1011B3009580070EEEC3941040C174106E706EC21A
:1011C30095C29212019790037CE0900334F0787DEE
:1011D30079037A357B037C1188828983E08A828B49
:1011E30083F088828983A3A882A9838A828B83A3BD
:1011F300AA82AB8388828983E08A828B83F0888288
:101203008983A308A9838A828B83A30AAB831CECFB
:1012130070C6790E1201EBA29640FC740F55C944B7
:10122300A0F5C9740F55C94450F5C980EA9003016C
:10123300E0640160030213E17E00900278E0F87439
:10124300F528F874FF3400F97A107B0012028FC37B
:10125300E89401E99400A2D265D03340558E087515
:101263000900740478081202FFE5082482FAE509EC
:101273003402FB53B38FE5B343B34074F855B3441F
:1012830002F5B3EAFCEBFD1201AF0E900278E0F831
:1012930074F528F874FF3400F97A107B0012028F7A
:1012A300880A890BC3EE950AE4950BA2D265D03365
:1012B30040AB900282C082901543780812022B75CE
:1012C3008302D082780812020360030213C09003E2
:1012D300A0E0640160030213DC7C0078A179039031
:1012E300027BE0FD900280E0FAA3E0FB8882898321
:1012F300E06A7003A3E06B700D88828983A3A3E087
:101303006D70030213DC0CE82403080808E93400B9
:10131300F9ECC3943240D5900437E075F003A4246C
:10132300A1F8E5F03403F988828983EAF0A3EBF0AE
:1013330090027BE088828983A3A3F0900437E004C2
:10134300F064317002E4F0C29390039EE064017094
:101353005A901534E0F8A3E0F5838882E0647E7048
:101363004A901535E0F5838882A3E02488F582E46A
:101373003402F583E064CE7032900280E0F8A3E09B
:10138300F9901534E0FAA3E0F5838A82A3A3E8F089
:10139300A3E9F09002FFE0C0E0901534E0F8A3E089
:1013A300F5838882A3A3A3A3D0E0F0900286E0FC98
:1013B3007D007A877B021201FDD293801C9002820A
:1013C300C082901547780812022B758302D0827869
:1013D30008120203700312019DE4900301F09003CD
:1013E3009EE070579004F3E06401704F9004F1E0C5
:1013F30075F082A424F4F582E5F03404F583E06407
:10140300017038900438E0C39415402F9004F1E044
:1014130075F082A424F4F582E5F03404F583E4F056
:101423009004F1E0F874012808E43400F97A107BA1
:101433000012028FEAF0E49004F3F07C008C089031
:1014430004F1E02508F8E43400F97A107B00120275
:101453008FEA9004F2F075F082A424F4FAE5F034F4
:1014630004FB8A828B83E06003021053C2929015BF
:101473002DE06401705790039EE0FC602274016CC0
:1014830070338A828B83A3A3A3A3E0FC8A828B831A
:10149300A3A3A3A3A3E0F9EC900384F0A3E9F08A48
:1014A300828B83A3E0F9EA2402FCEB3400FD7A8407
:1014B3007B0312017F9004F2E075F082A424F4F51B
:1014C30082E5F03404F5837401F0E4A3F09003A003
:1014D300E06401600302105DD29202105DC082C01D
:1014E30083740690037CF0743C90037DF074109039
:1014F300037EF0740E90037FF09003807412F0A3C8
:101503007420F0E490039EF0901538E0900384F08B
:10151300901539E0900385F07582867583037A040C
:10152300E4F0A3F0A31AEA70F7901536E0F8A3E00D
:10153300F97A8E7B037C0888828983E08A828B8395
:10154300F088828983A3A882A9838A828B83A3AA32
:1015530082AB8388828983E08A828B83F088828945
:1015630083A308A9838A828B83A30AAB831CEC70B1
:10157300C690153AE0FA90153BE0F9EA900382F041
:10158300A3E9F0021FC774F5120369900287E01202
:10159300041E0202D6199F15D915171974F355B4F1
:1015A3004404F5B4E5BD75F0C884E5F075F021A4F5
:1015B300F508AAF0E42AF50943E40CE5E4EA9420EB
:1015C30040067AFF7BFF800B740378081202FFAAA0
:1015D30008AB090219C3750808750900783A79152B
:1015E3007A887B02E50824FFF508E50934FFF5094D
:1015F300EAFCEBFD8C828D83A3AA82AB83E8FEE930
:10160300FF8E828F83A3A882A9838C828D83E0FCC3
:101613008E828F83E06C60030219D6E5087002E5C1
:101623000970C1901532E0F8A3E0F5838882740B4A
:10163300F0901532E0F8A3E0F5838882A37483F079
:10164300783A7915901532E02402FAA3E03400FBCE
:101653007C0488828983E08A828B83F088828983F1
:10166300A3A882A9838A828B83A3AA82AB8388825D
:101673008983E08A828B83F088828983A308A98384
:101683008A828B83A30AAB831CEC70C6900290E022
:10169300FAC394084037901532E0F8A3E0F5838845
:1016A30082A3A3A3A3A3A3A3A3A3A37401F090154D
:1016B30032E0F8A3E0F5838882E0F9901532E0FC8C
:1016C300A3E0FD7A327B031201850219D690039EB3
:1016D300E0FB7024900291E024F6C3945B401990E0
:1016E3001532E0F8A3E0F5838882A3A3A3A3A3A301
:1016F300A3A3A3A3740280B5900292E024F5C3943C
:10170300104019901532E0F8A3E0F5838882A3A373
:10171300A3A3A3A3A3A3A3A374038091900293E021
:10172300C39410401A901532E0F8A3E0F583888241
:10173300A3A3A3A3A3A3A3A3A3A374040216B09078
:101743000294E0F8A3E0F9E87001E9600A74FF6825
:10175300700374FF697019901532E0F8A3E0F58304
:101763008882A3A3A3A3A3A3A3A3A3A3740580AA6B
:10177300900296E0F8A3E0F9E87001E9600A74FFCB
:1017830068700374FF69701A901532E0F8A3E0F5EE
:10179300838882A3A3A3A3A3A3A3A3A3A3740602DF
:1017A30016B0EB7024900298E07002A3E0701A90D8
:1017B3001532E0F8A3E0F5838882A3A3A3A3A3A330
:1017C300A3A3A3A374070216B09002B2E0C39402CA
:1017D300401A901532E0F8A3E0F5838882A3A3A30F
:1017E300A3A3A3A3A3A3A374080216B0EA9003348C
:1017F300F0789179027A357B037C1188828983E0C2
:101803008A828B83F088828983A3A882A9838A82B0
:101813008B83A3AA82AB8388828983E08A828B83AA
:10182300F088828983A308A9838A828B83A30AAB66
:10183300831CEC70C6790E1201EB75082475090040
:10184300780812040D7C347D037A007B00790E1234
:1018530001E57402120328780812040D7C587D03F5
:101863007A007B00790E1201DF74021203287508D7
:1018730023785879037A907B02E50824FFF508E57D
:101883000934FFF509EAFCEBFD8C828D83A3AA8260
:10189300AB83E8FEE9FF8E828F83A3A882A9838CA2
:1018A300828D83E0FC8E828F83E06C704DE508703F
:1018B30002E50970C4901532E0F8A3E0F58388824D
:1018C300A3A3A3A3A3A3A3A3A3A3E4F0901532E02C
:1018D300F8A3E0F5838882E0F9901532E0FCA3E0F9
:1018E300FD7A327B03120185740F55C944A0F5C9F3
:1018F300740F55C94450F5C980FE901532E0F8A322
:10190300E0F5838882A3A3A3A3A3A3A3A3A3A374A0
:10191300FF0216B0750808750900783A79157A88B8
:101923007B02E50824FFF508E50934FFF509EAFC25
:10193300EBFD8C828D83A3AA82AB83E8FEE9FF8E45
:10194300828F83A3A882A9838C828D83E0FC8E82FD
:101953008F83E06C707DE5087002E50970C4900325
:10196300A0E07025790D1201EB7508047509007864
:101973000812040D7C907D027AE87B07790D120131
:10198300E574021203281201A374F355B44404F559
:10199300B4E5BD75F0C884E5F075F021A4F508AA97
:1019A300F0E42AF50943E40CE5E4EA942040067ADE
:1019B300FF7BFF800B740378081202FFAA08AB09B0
:1019C300EBF5DBEAF5DA75E54453AFFEC2B9D2B9FC
:1019D30043E4027F030203CFC082C08374019003F8
:1019E300A0F0D292D293D083D08202010B74F6126C
:1019F3000369750824750900780812040D7C347D89
:101A0300037A007B00790E1201DF7402120328901F
:101A13000357E0606CE4F090037CE0900334F078CB
:101A23007D79037A357B037C1188828983E08A82FE
:101A33008B83F088828983A3A882A9838A828B837C
:101A4300A3AA82AB8388828983E08A828B83F0880E
:101A5300828983A308A9838A828B83A30AAB831C0D
:101A6300EC70C6790E1201EB780812040D7C347DFC
:101A7300037A007B00790E1201E5740212032880B9
:101A83004C900334E090037CF0783579037A7D7BC6
:101A9300037C1188828983E08A828B83F088828920
:101AA30083A3A882A9838A828B83A3AA82AB838818
:101AB300828983E08A828B83F088828983A308A941
:101AC300838A828B83A30AAB831CEC70C602098BC7
:101AD30074F712036943B3017E00800D8C828D83FA
:101AE300E0F5B1A3AC82AD830EEEC3941040ED7C60
:101AF3000FEC1C70FC7E00800DE5B28A828B83F0B4
:101B0300A3AA82AB830EEEC3941040ED7F010203C0
:101B1300CFC082C08374F01203127A867B038510D0
:101B230082851183A882A9837C048A828B83E088BF
:101B3300828983F08A828B83A3AA82AB838882897A
:101B430083A3A882A9838A828B83E088828983F016
:101B53008A828B83A30AAB8388828983A308A983A0
:101B63001CEC70C67A8A7B03740812035DA882A9F1
:101B7300837C028A828B83E088828983F08A828BCA
:101B830083A3AA82AB8388828983A3A882A9838A39
:101B9300828B83E088828983F08A828B83A30AAB5A
:101BA3008388828983A308A9831CEC70C67A867B09
:101BB30003740C12035DA882A9837C028A828B833F
:101BC300E088828983F08A828B83A3AA82AB83888D
:101BD300828983A3A882A9838A828B83E0888289EE
:101BE30083F08A828B83A30AAB8388828983A308C9
:101BF300A9831CEC70C653B38FE5B343B34074F8A9
:101C030055B34404F5B385108285118343B3017A38
:101C130008E0F5B1A3E0F5B1A31AEA70F4021FC21C
:101C230074F412036974F8120312740190043DF002
:101C330090154B780812022B740412035D78081276
:101C4300023AE5A8FAC2AF75C300E5A2E5A4851080
:101C530082851183F0E5A5C0E0740112035DD0E035
:101C6300F0E5A6C0E0740212035DD0E0F074031245
:101C7300035DE4F0EAA2E792AF85108285118378D1
:101C83000812022B90043F7808120218E5A8FAC242
:101C9300AF75C300740412035DE0F5A47405120369
:101CA3005DE0F5A5740612035DE0F5A6EAA2E792EE
:101CB300AF90154F780812022BAA08AB09AC0AADF6
:101CC3000B1201C175A1EF439401E594A2E250FA0E
:101CD30043A71074081203287F040203CF74F4127D
:101CE300036974FC1203128A088B098C0A8D0BA2F8
:101CF300AFE492E0FAC2AF900439780812023A8551
:101D03001082851183780812023A7B00A2AFE49215
:101D1300E0FCC2AFE5A7A2E450040B53A7EF75C3E1
:101D230030851082851183E0F5A4740112035DE010
:101D3300F5A5740212035DE0F5A675A1EFEB600350
:101D430043A710ECA2E092AFEAA2E092AF74048042
:101D530084C082C08374F012031274149061A9F0DA
:101D6300743F9061ABF0745A9061ACF0740590616C
:101D730096F074859061A8F0E49061AEF0741590CC
:101D830061B2F0E4906182F074109061B5F0740E6A
:101D93009061B6F074039061B7F074099061FAF042
:101DA30074FF9061E5F0439A01D2A843A90153B9A6
:101DB300FE43A90453B9FB906249E090043EF0E569
:101DC300A8C2AF75C30275A20075A328A2E792AF9C
:101DD3007480659E70FA439401E594A2E250FA433D
:101DE3009408D2BA7448906189F07401900273F038
:101DF30075E1ED75E1E3906199E0A2E050F87800B8
:101E030079007C10E8C333F8E933F99061A7E0A2C5
:101E1300E0E492E048F81CEC70EAE87001E9600A3B
:101E23007480687003740369700478BE79BAE8F546
:101E3300BCE9F5BC900443E07002A3E0604E85105A
:101E430082851183A882A9837A107C007B08906124
:101E5300A7E0A2E0E492E0C0E0ECC333FCD0E04CA6
:101E6300FC1BEB70E9EC88828983F0A3A882A98329
:101E73001AEA70D6851082851183AA82AB839004F7
:101E830043E0F8A3E0F5838882120367E4900273CA
:101E9300F075E1EF75E1ED7440906189F0E49061D4
:101EA30064F0906165F0906166F0906167F0906115
:101EB30068F0906169F0021FC274F612036974F34B
:101EC30055B44404F5B4750801750900900446E05F
:101ED30078081202FFE5081455BD900447F0759C7D
:101EE3000174019061E4F075E1E275E1FFE5A8C2D8
:101EF300AF759B007591EFA2E792AFE5A8C2AF75EE
:101F03009B007591F7A2E792AF75E1BC75E1B875D7
:101F1300E10F75E11075E1D275E1D975E10175E164
:101F23000975E1BA75E10175E1C575E1D202098B65
:101F3300C082C083900445E004F0C3940540087454
:101F43000190152DF08076900446E0F8740128087E
:101F5300E43400F9E89405E99400C365D0335004F0
:101F6300E00480027405F01201CD900447E0906113
:101F7300E2F075A1FDA2AFE492E0FAC2AF75C3002F
:101F8300E5A2FBE5A3FC90043EE0C394125008EBEA
:101F93007005EC70027B0175C3038BA28CA3EAA2CC
:101FA300E092AF9061A4E0D2E4F0E0D2E3F07401F8
:101FB300900273F075E1ED75E1E375E1E18005747D
:101FC30010120328D083D08202010BE9700AC28762
:101FD30074080014600A80FAD2877408001470FC35
:101FE30002010B74F4120369C0A8C2AFE9FE740CBA
:101FF30012035DE0F50AA3E0F50B740F5EF50875B7
:102003000900740B78081202FF2AF874803BF9E484
:1020130028E50939F9E5C7FBEEC4540FC0E074F8AD
:1020230055C7FAD0E04AF5C7E50A7002E50B603000
:1020330088828983E08C828D83F088828983A3A838
:1020430082A9838C828D83A3AC82AD83E50A24FFAE
:10205300F50AE50B34FFF50BE50A7002E50B70D0CA
:102063008BC7D0A8021CDB74F2120369E9FE8A084D
:102073008B09740E12035DE0F50CA3E0F50D7402F9
:1020830078081202F08E0AF50B7409780A1202FF1F
:102093002508FAE50B3509FB7403250CF508E4352F
:1020A3000DF509740278081202F0ED900448F0EC83
:1020B300900449F0746290044AF0747390044BF0F6
:1020C30090044CE0541FF0E508333354FC90044D66
:1020D300F0740678081202F0E50890044CF07412CC
:1020E30090044EF0744290044FF053D1FE75D60124
:1020F300EA906271F0EB906272F01201F17F0602D6
:1021030003CFC082C083C0A8C2AF906270E0A2E7D1
:1021130040F8E9C333906272F0906270E0D2E0F06D
:10212300E0A2E740FBD0A8021FC7C082C083C0A8BB
:10213300C2AF43C708906270E0D2E1F0E0A2E7408B
:10214300FB53C7F780DFC082C0838A828B83A3E0FF
:10215300FC74056C600A74066C600574076C70058A
:1021630075C2D8800375C23BE012041E0007B2217A
:10217300832199219E21A321A821A821B221AD2148
:1021830075C5068A828B83A3A3E0602875C4424386
:10219300F330E5F3802175C50780E875C50880E352
:1021A30075C50980DE75C50A80D975C50C80D475DF
:1021B300C50B80CF75C402438640D2AA75C1009077
:1021C3001514E4F0A3F0901516F0A3F09004F1F0C9
:1021D30078F479047A08740188828983F0E4A3F09F
:1021E300E82482F582E93400F5837401F0E824835E
:1021F300F582E93400F583E4F0E82404F8E93401D6
:10220300F91AEA70D1021FC774F712036990151601
:10221300E0FEA3E0FF901514E0F8A3E0F9C3EE9805
:10222300EF99901514E0500FC39EF8A3E09FF97443
:10223300FF281874FF800DC39EF8A3E09FF974FF75
:102243002818740739F9C3E89CE99D50067A007B86
:1022530000806678007900EC7001ED60588A828B0B
:1022630083E0C0E0901516E02414FEA3E0340DFFD4
:102273008E828F83D0E0F08A828B83A3AA82AB8382
:10228300E4901518F0901516C3E094FFA3E09407AB
:102293009015164005E4F0A38008E02401F0A3E0C4
:1022A3003400F0439A04E8240108E93400F9C3E850
:0E22B3009CE99D40A8E8FAE9FB7F010203CFF9
:04000005000000E314
:00000001FF
